S00D000073746172742E73726563E9
S31500000000300B002011130000B91100000D13000081
S315000000100D1300000D1300000D1300000D1300005A
S315000000200000000000000000000000000D130000AA
S315000000300D130000000000000D1300000D1300005A
S315000000409D0B0000090B00003D0C0000890C000010
S31500000050000000000000000000000000000000009A
S31500000060000000000000000000000000000000008A
S31500000070000000000000000000000000000000007A
S31500000080000000000000000000000000000000006A
S31500000400FFFFFFFFDFCEFFFFFCFF0F00FFFF0F0028
S31500000410FCFF0F00FFFF0F00FCFF0F00FFFF0F00A8
S31500000420FCFF0F20FFFF0F20FCFF7F40FFFF7F40F8
S31500000430FCFF0D40FFFF0D40FFFFFFFFFFFFFFFF2B
S31500000440FFFFFFFFFFFFFFFFFFFFFFFFFFFFFFFFB6
S31500000450FFFFFFFFFFFFFFFFFFFFFFFFFFFFFFFFA6
S31500000460FFFFFFFFFFFFFFFFFFFFFFFFFFFFFFFF96
S31500000470FFFFFFFFFFFFFFFFFFFFFFFFFFFFFFFF86
S31500000480FFFFFFFFFFFFFFFFFFFFFFFFFFFFFFFF76
S31500000490FFFFFFFFFFFFFFFFFFFFFFFFFFFFFFFF66
S315000004A0FFFFFFFFFFFFFFFFFFFFFFFFFFFFFFFF56
S315000004B0FFFFFFFFFFFFFFFFFFFFFFFFFFFFFFFF46
S315000004C0FFFFFFFFFFFFFFFFFFFFFFFFFFFFFFFF36
S315000004D0FFFFFFFFFFFFFFFFFFFFFFFFFFFFFFFF26
S315000004E0FFFFFFFFFFFFFFFFFFFFFFFFFFFFFFFF16
S315000004F0FFFFFFFFFFFFFFFFFFFFFFFFFFFFFFFF06
S3150000050010B540F2F014C2F20004237863B940F249
S315000005100003C0F200032BB146F20840C0F200000F
S3150000052000E000BF0123237010BDC04640F2000367
S31500000530C0F2000310B54BB140F2F41146F2084088
S31500000540C2F20001C0F2000000E000BF10BDC046CC
S315000005500379022B05D140F20C230122C2F20003DB
S315000005601A707047F0B5C64600B5904682B0002AAC
S315000005701BDD40F20C240D0000268F18C2F2000489
S31500000580002340F21820EB56012201A9C2F2000016
S31500000590019300F0D9F8C0B200B100BE2378002B59
S315000005A0FCD001352670BD42EAD1404602B080BC7F
S315000005B0B846F0BDF0B5DE4657464E46454645F6CA
S315000005C0885140F21820E0B5C0F2000185B0C2F2B1
S315000005D0000000F045F970B145F6E44345F6705267
S315000005E045F6F8405321C0F20003C0F20002C0F203
S315000005F0000000F0ADFD5523019345F66453C0F2AB
S315000006000003009345F60C5245F6F84345F618519B
S3150000061045F62450C0F20003C0F20002C0F2000109
S31500000620C0F2000001F0CEFB802242F2FB1345F639
S315000006305C50C4F20903D205C0F2000001F0C2FB0F
S3150000064045F69073C0F200031D88002D59D040F284
S31500000650882740F60058002440F201095E68C2F27D
S315000006600007C4F20408EFF3108289F310883B6890
S3150000067023B94146CB7043464021D9703B680133CC
S315000006803B6082F3108843F6FE7CCFF6FE7C624622
S3150000069040F60000002140F2FF0B40F2040ABC467F
S315000006A0C4F2040003925F464B00F25A0131130A6A
S315000006B01B013A409B189B00039F1A583A40574625
S315000006C022433A431A50A942EDD36746EFF310820C
S315000006D089F310883B6813B13B68013B3B603B687C
S315000006E01BB94146CB708033CB7082F3108801234F
S315000006F040F2E8311C1B40F2F410E4B200F02EFD8B
S31500000700B1E7FEE700B583B040B94CF20003902292
S315000007100121C4F27E03995403B000BD0228FBD127
S3150000072045F67C5340F21020C0F200035B68C2F22B
S3150000073000001900019300F00FFCEDE710B5FFF77C
S3150000074039FF002010BDC0467B2330B5046AA5786A
S315000007502B40A37083789B079B0FD21A02618022DD
S31500000760CB18C360A3781343A37003238278134086
S31500000770022B03D00B78E370002030BD4FF60062E9
S315000007800B881343E381F7E7F0B51F2501241540D5
S31500000790AC404EF20015C64653092033CEF2000592
S315000007A09B0000B588465C51BFF34F8FBFF36F8F38
S315000007B0130046F20004C033C4F200049B001D5926
S315000007C0124E35401D511B594EF20011FF240325D0
S315000007D0CEF200018C46210040F200371540ED00B4
S315000007E0A94093089B006344DE5992008E4341461C
S315000007F089010C40AC403443DC5140F28C23C2F2F8
S315000008000003D05080BCB846F0BDC046FFFFFEFFD7
S31500000810F0B5C64600B50500806A84B08C469046A1
S315000008206C46D8B12300060086CE86C336681E60A5
S31500000830EB691B7803606346836043460371EB6A8A
S31500000840C3606B6A9847AB6A23B107CC07C31A002B
S315000008502368136004B080BCB846F0BD2000E7E70B
S3150000086043F60002C0F200229446F8B54546DE463D
S3150000087057464E460B78E0B563445B01036200239E
S3150000088003704A690D0042628A69C161C26203222D
S31500000890012183628378040093430B4383706B7852
S315000008A023B9837893430222134383700B222000DB
S315000008B0AA56A97AFFF768FF05222000AA562979C9
S315000008C0FFF762FF07222000AA56A979FFF75CFF0F
S315000008D009222000AA56297AFFF756FFEFF3108661
S315000008E0012080F31088802146F6FC732F780906D4
S315000008F0F940C4F204035A688A435A605B6886F377
S3150000090010880022236A29789A701A715A729A728C
S31500000910DA725A8340F20F22CA40104201D04022B6
S31500000920DA7406221A776878AA78EE78E9692D785B
S315000009300DB9734D9D821201F6003243032800D192
S31500000940D9E0451EA8410001E230D2B21A70022257
S315000009509871087BFF264000024020205A734A788F
S315000009608D78D2016D012840324002430020187272
S315000009700878851E8346012D00D8B4E003274D680C
S31500000980D2B2DA71AA786E785A701A783E40BA43B3
S3150000099032431A70EA7859379A74DE792A78BE4358
S315000009A03A403243DA71002305222361A361E360F2
S315000009B06361E369534F9A5646F200031500C0354A
S315000009C0C4F20003AD00EE58BC463E40EE50ED5872
S315000009D0BFF35F8F40F21F0A0126554637001540C8
S315000009E0AF404EF20015CEF20005A94640F2801542
S315000009F0520992004A445751176040F2C008E26912
S31500000A006046D27A52B290444746BF00B846FF5875
S31500000A1007404046C750C058BFF35F8F5746174040
S31500000A20B8463700404687404EF20010CEF200002E
S31500000A308146520992004A445751176040F2C00855
S31500000A40E269D27952B29044404680008046C0584E
S31500000A500700604607404046C750C058BFF35F8F47
S31500000A6057461740B8463700404687404EF20010BA
S31500000A70CEF200008146520992004A44575117604F
S31500000A8040F2C008E2696746527A52B29044404644
S31500000A9080008046C05807404046C750C358BFF341
S31500000AA05F8F4EF200135746CEF2000317409C4666
S31500000AB0BE405209920062445651166003235846BE
S31500000AC018406D331843236A98704B8900202381A0
S31500000AD044F65513C5F243336360F0BCBB46B246D9
S31500000AE0A946A046F8BD5E70022801D110252A430A
S31500000AF0D2B2DA7157E73D300243B23025E7C0463D
S31500000B0000F8FFFFFFFFFEFF70B5EFF30383103B16
S31500000B105BB21A0046F20001C032C4F20001920034
S31500000B2050581D4C20405050525840F28C229B0089
S31500000B30C2F200029858C3691B6913B1036913B165
S31500000B4070BD036983B97F23026A91780B40042143
S31500000B500B4393700023C360436A002BF0D08022BE
S31500000B600021FFF755FEEBE70321827811400229A9
S31500000B700AD0C168056A0C78EC709207920F9B1A2E
S31500000B808A180361C260DAE74FF60065C1680C880F
S31500000B902C43056AEC81F0E7FFFFFEFF10B582B03B
S31500000BA0EFF30383103B5BB21A0046F20001C0323A
S31500000BB0C4F20001920050581F4C20405050525829
S31500000BC040F28C229B00C2F200029C580323A278BA
S31500000BD01340022B0DD0236A5979A369C9B201913A
S31500000BE083B9636A1BB104222000FFF711FE02B02D
S31500000BF010BD40F2FF11236A1B8A1940A3690191B7
S31500000C00002BEED09207920F606901A900F07AFCE2
S31500000C10A37862699B079B0FD2186261A269D31AF7
S31500000C20A361002BE3D1636A002BE0D001220021EF
S31500000C302000FFF7EDFDDAE7FFFFFEFF10B5EFF34B
S31500000C40038440F28C23103C64B2C2F20003A2007B
S31500000C50D0587B23026A91780B409370436A1BB18C
S31500000C6002220021FFF7D4FD230046F20002C03322
S31500000C70C4F200029B0099580248014099509B58C3
S31500000C8010BDC046FFFFFEFF70B5EFF3038440F2D0
S31500000C908C23103C64B2C2F20003A200D058032396
S31500000CA082781340022B22D0036A5979C9B23822BE
S31500000CB01D792A40ED0602D51D7FED0714D538268D
S31500000CC01D79B5431D71436A0BB1FFF7A1FD2300E2
S31500000CD046F20002C033C4F200029B00995807484E
S31500000CE0014099509B5870BD40252A43E7E740F2E2
S31500000CF0FF11036A1A8A1140D9E7C046FFFFFEFFBB
S31500000D000023036000207047FF2010B540F6000462
S31500000D100B0A084019010918C4F2040489000B598A
S31500000D2000209B07DB0F137010BDC0460023C4F2E2
S31500000D3004039C46090A490161444B68002013805C
S31500000D407047C0460020C4F2040084461800090A11
S31500000D5090430004134049010343614400208B6023
S31500000D607047C046FF2001230840834052B91B0448
S31500000D700022C4F204029446090A49016144002093
S31500000D808B6070474FF6FF721340F1E70020C4F204
S31500000D90040084461800090A490110B561440C682C
S31500000DA010402043934398430860002010BDC0467E
S31500000DB00023C4F204039C46090A490161444B68B6
S31500000DC000201B0C138070470020C4F204008446E8
S31500000DD00B0A5B0163445868FF231940FE3B8B40B6
S31500000DE0000C99B203405B1A59424B410020137024
S31500000DF07047C0460020C4F2040084461800090A61
S31500000E009043000413404901034361440020CB6032
S31500000E107047C0460B0A10B55B01012A10D00022AC
S31500000E20C4F204029446FF208022014052028A4006
S31500000E306344DC682243120C12040020DA6010BD01
S31500000E400020C4F204008446FF2001408A401100BD
S31500000E504FF6FF726344DC68114021430A40ECE719
S31500000E60F0B5DE4657464E464546E0B583B0EFF34D
S31500000E701082012383F3108840F28823C2F2000314
S31500000E8001931B6833B940F60051C4F20401CB70DC
S31500000E904033CB7001990B6801330B6082F31088E5
S31500000EA003889A46BBB3802340F600055B02994649
S31500000EB0284B002240F2FF089C464168C4F2040514
S31500000EC00AE043461E4023019B1901329B0092B261
S31500000ED05851083192451ED04B468E880868340A10
S31500000EE01842EED043461E4023019C19A7006446D3
S31500000EF000977F599B1927403C00009F01327C5187
S31500000F00674607403C00009F9B0092B27C51083127
S31500000F1058519245E0D1EFF31082012383F31088F4
S31500000F20019B1B681BB101990B68013B0B60019B80
S31500000F301B6833B940F60051C4F20401CB7080330C
S31500000F40CB7082F3108803B0F0BCBB46B246A9460C
S31500000F50A046F0BDFFFFFEFF45F2542310B5C5F2D3
S31500000F604F0303600800FFF77BFF002010BDC0465B
S31500000F7010B50800FFF774FF002010BDF0B5EFF3C1
S31500000F801084012383F3108840F28823C2F2000301
S31500000F90186830B940F60055C4F20405E8704030D0
S31500000FA0E87018680130186084F31088D00321D4E3
S31500000FB0FF24080A0C40010140F600000919C4F29A
S31500000FC0040089000A50EFF31082012181F3108892
S31500000FD0196811B11968013919601B6833B940F6EF
S31500000FE00051C4F20401CB708033CB7082F31088B9
S31500000FF00020F0BDFF2440F60005080A0C40010160
S315000010000819C4F2040580004759034E37401640BC
S3150000101047514651D0E7C046FFFFFEFF4EF20003A0
S31500001020262240F2DC11C4F20103985C1B6A8000A0
S31500001030C2F2000141585B015B0F40F21832D94001
S31500001040C2F20002116070474EF2000340F2FE3217
S315000010503D49C4F2010330B599524CF20001002219
S3150000106043F6C870C4F27E010A5440F2DC1046F61C
S315000010700041C2F20000C0F2DC21016041F2002111
S31500001080C0F27A01416048F20001C26002618160EB
S315000010902632995C1A6A890041585201520F40F271
S315000010A01834D140C2F20004216040F2804201218E
S315000010B09954A0229A5CCAB136229A5C1AB93B317D
S315000010C05A5CD207FCD54EF20002A021C4F20102FE
S315000010D0535CDB06DD0F002BFADB55544EF20002A3
S315000010E0A021C4F20102535CDB06FCD44EF20002DE
S315000010F000213623C4F20102D1543C31535CDB0794
S31500001100FCD501213123D1544FF6C473C4F27E03BA
S31500001110197040F2001300251362DA3BD554D55CF2
S31500001120136AAD0040595B015B0FD84040F2FE33B5
S3150000113020600648D0524CF2000343F6C872C4F24F
S315000011407E03995430BDC04603A5FFFF00A5FFFFEF
S3150000115000BEFEE701380028FCD1704740F2183285
S315000011604CF600234143C2F2000270B51468C3F680
S315000011709A330D00B3FBF4F4080040F2E832002382
S31500001180002100F06DF931B9B0FBF4F0800808B128
S31500001190FFF7E0FF70BDA000B5FBF0F040F2E832CB
S315000011A00023002100F05CF90029F0D00120404224
S315000011B0FFF7D0FFEEE7C046F8B546F2000340F26F
S315000011C0401240F2482500240127C4F200039E5A2B
S315000011D0C2F20005B6B23300E340E0B21F4202D0CD
S315000011E02B6803B1984701340435102CF3D146F22D
S315000011F0000340F23012C4F200039E52F8BDC0460E
S3150000120046F200000023C4F2000045F63472C0F234
S3150000121000029A1811781A00C03292000133115058
S31500001220202BF2D17047C04670B5EFF31081012331
S3150000123083F3108840F20C334000C2F200031A5ABE
S315000012401AB11A5A013A92B21A521B5A83B94EF27D
S31500001250000240F2FE3545F68874C4F20102565B80
S31500001260054BC0F20004205A334383439BB25353C9
S3150000127081F3108870BDC04600A5FFFF70B5EFF37F
S315000012801081012383F3108840F20C324000C2F231
S315000012900002135A83B94EF2000445F6887540F2EF
S315000012A0FE36C4F20104C0F20005A35B2D5A2B439F
S315000012B04AF200552B43A353135A01339BB21352E0
S315000012C081F3108870BDC04640F21432C2F20002AB
S315000012D00300106810B558B1032103338B4340F265
S315000012E03071C318C2F200018B4207D8136010BDDB
S315000012F040F23030C2F200001060EDE700F0FCF87A
S315000013000C23036001204042F1E7C04600BE70474F
S3150000131010B500F003F8FFF711FAFEE7F0B54EF648
S31500001320005340F20005CEF20003C0F2000583B080
S315000013309D600020FFF7E6F9FFF786FE6B46002763
S31500001340DC1D277001202378FFF798FFEFF310814B
S31500001350012686F3108846F6FC73C4F204039A68E5
S315000013603B4802409A609A6881F3108840F6000173
S31500001370C4F204010A68D207D20F22700A68D207A3
S31500001380D20F22700A68D207D20F2270EFF31081B3
S3150000139086F3108880229868520502439A609B68FB
S315000013A081F310880120FFF73FFF0120FFF7AAF91C
S315000013B040F60053274AC4F200039F8026491A804C
S315000013C02A6841F2000051189960DA6046F200027C
S315000013D040F22011C4F20002505240F22C3240F288
S315000013E0F010C2F20002C2F200009E800021121A22
S315000013F000F091F840F2000040F2DC1246F20C4197
S31500001400C2F20000C2F20002121AC0F2000100F09D
S3150000141079F840F2D41540F2D813C2F20005C2F2B0
S3150000142000035B1B9E10002B05DD002408CD013454
S315000014309847A642FADCFFF7F1FD0220FFF762F9B2
S31500001440FFF7DEFE002000F009F803B0F0BDC0464D
S31500001450FFFFFFEF00A5FFFF00FCFFFF7047C04640
S31500001460F0B54FF6FF75CE46474699462B00154018
S315000014700E0029000340140C80B50700000C5943E8
S315000014804543634360435B190C0CE4188C46A54244
S3150000149003D980235B0298464044230C61461B18FF
S315000014A020044FF6FF740C40494679437243C9182D
S315000014B000198918C0BCB946B046F0BD1C210123ED
S315000014C01B04984201D3000C10391B0A984201D321
S315000014D0000A08391B09984201D30009043902A2FF
S315000014E0105C40187047C046040302020101010166
S315000014F00000000000000000014B18687047C0465D
S3150000150004000020002310B59A4200D110BDCC5C27
S31500001510C4540133F8E703008218934200D17047A0
S3150000152019700133F9E7F0B51E00002314008BB0E3
S315000015309E4204DA8021090673181E002D23129A92
S31500001540149F1370202303229F43462F07D03B008E
S31500001550453B59424B411099013ACB18109309ABC0
S31500001560049308AB0393139B00920293109B2200F3
S315000015700193330000F0CCFC0500472F02D1119BEC
S31500001580DB0726D5109BEB180793462F13D12B7834
S31500001590302B0BD1002200232000310002F0D4FCB6
S315000015A020B90123109A9B1A139A1360139B079A6A
S315000015B01B68D3180793002200232000310002F095
S315000015C0C3FC08B1079B09933022099B07998B42FC
S315000015D006D32800099B159A5B1B13600BB0F0BD60
S315000015E0591C09911A70F0E7F7B5831C02702B227B
S315000015F0002901DA494202324270092926DD6A468B
S31500001600D41D260040F20A0C91FBFCF762467A4391
S315000016108A1A30322500013C22700A003900632AFA
S31500001620F2DCAC1E3031217022001900964208D837
S315000016300022B44202D809326A44521B9B18181A77
S31500001640FEBD177801320F700131EFE730233031DC
S315000016508370C170031DF2E7F0B595B00C000992D6
S315000016601E001A9D070001F063FB036818000C9327
S3150000167000F0C0FB00231293237E07220A932368FF
S315000016800E900D930D992B68C90544D59B1893436D
S315000016901A0008322A601A685B68A264E3640122B1
S315000016A0A36CE56C0B936B005B080F930B98A54B33
S315000016B00F99524204F00AFA00282ED10122A14BBA
S315000016C00B980F99524202F04FFC30BB00220023C8
S315000016D029000B9802F03EFC18B123002D2243335B
S315000016E01A700A9B472B2AD9974D03230D9A23611B
S315000016F001339A43002322600B93099B2100380093
S31500001700009613AA00F0E4F9431C00D0A2E00120E1
S31500001710404215B0F0BD0733B9E70B9A2B00100015
S31500001720290004F0D3F970B1002D03DA23002D222D
S3150000173043331A700A9B472B03D9844DD5E7844D52
S31500001740D3E7844DD1E720220A99636891430F912C
S315000017505A1C49D10733636040F200430D9A08A929
S3150000176013430022069212AA05920A9A2360049253
S3150000177011AA0392232201936368521802920093DE
S3150000178038002B000B9AFFF7CEFE0F9B0500119930
S31500001790472B08D1CB1C02DB6368994246DD0A9BC6
S315000017A0023BDBB20A930A9B652B24D820001A0061
S315000017B0013950301191FFF717FF129A0B90131849
S315000017C02361012A02DC2268D20701D50133236195
S315000017D0232308AA9B181B78002B00D18DE7230032
S315000017E02D2243331A7088E70F9A472AB4D1002B6B
S315000017F0B2D10133AFE70A9B662B19D16368002982
S315000018000CDD216113B92268D20702D501335918BC
S315000018102161119BA36500230B93D9E71BB9012214
S315000018202168114200D09A1C2261F2E767230A93CD
S31500001830119B129A934206DB22682361D207E8D5F0
S3150000184001332361E5E70121002B01DC4918C91AA0
S315000018505218E9E72268530507D423692A0038009D
S315000018600999B047431C27D151E70A9B652B00D83D
S31500001870E0E0A06CE16C0022002302F065FB88B377
S3150000188001233800344A0999B047431C00D13EE78A
S31500001890119B129A934202DB2368DB070CD53800B2
S315000018A00E9B0C9A0999B0470025431C00D12EE7E0
S315000018B0129B013BAB420ADC23689B0700D505E17E
S315000018C0139BE068984200DB23E7180021E722001B
S315000018D00123380009991A32B047431C00D116E794
S315000018E00135E5E7119B002B38DC012338001A4A45
S315000018F00999B047431C00D109E7119B129A13437B
S3150000190013B92368DB07D7D50E9B38000C9A0999C3
S31500001910B047431C00D1FAE600230A93119B0A9AAA
S315000019205B42934201DC129B98E7220001233800B8
S3150000193009991A32B047431C00D1E8E60A9B0133E5
S31500001940EBE7C046FFFFEF7FA85F0000B05F000037
S31500001950A45F0000AC5F0000B45F0000129AA36DA4
S315000019600A929A4200DD0A930A9B002B3CDC002374
S315000019700D930A9BDB43DB170F93A36D0F9A0B9313
S315000019800A9B13400B9AD31A0D9A934234DC119B8F
S31500001990129A93423DDB2368DB073AD4129A0B9BDB
S315000019A01199D31A521A0A929A4200DD0A930A9B97
S315000019B0002B36DC0A9B0025DB43DB170B93119AC1
S315000019C0129B0B999B1A0A9A0A409B1AAB4200DC9F
S315000019D072E722000123380009991A32B047431CE6
S315000019E000D194E60135EAE70A9B2A0038000999F6
S315000019F0B047431CBBD18AE622000123380009996F
S31500001A001A32B047431C00D181E60D9B01330D937A
S31500001A10B3E70E9B38000C9A0999B047431CBDD119
S31500001A2075E60B9B3800EA1809990A9BB047431CD8
S31500001A30C0D16CE6129B012B02DC01231A4233D083
S31500001A4001232A0038000999B047431C00D15EE6FD
S31500001A500E9B38000C9A0999B047431C00D156E6F4
S31500001A60A06CE16C0022002302F06EFAD0B9129B42
S31500001A706A1C013B38000999B047431C0ED146E663
S31500001A8022000123380009991A32B047431C00D1BD
S31500001A903DE60135129B013BAB42F1DC22000B9B7C
S31500001AA05032DCE60025F5E72A00E3E722000123B1
S31500001AB0380009991932B047431C00D127E6013591
S31500001AC0E368139A9B1AAB42F0DCF9E60025F7E7C8
S31500001AD0F7B5150001938A680B690C0000909342D4
S31500001AE000DA130022002B60433212780AB1013368
S31500001AF02B6023689B0602D52B6802332B60226875
S31500001B00062317001F401A4227D0230043331B78B1
S31500001B105A1E93412268920630D4220001990098F9
S31500001B20089E4332B047431C25D0062320682A6806
S31500001B30E16800250340042B03D18D1AEB43DB1724
S31500001B401D40A3682269934201DD9B1AED18002708
S31500001B50BD4220D1002010E00137E3682A689B1AB5
S31500001B60BB42D2DD2200012301990098089E19325A
S31500001B70B047431CF0D101204042FEBD3020E118A1
S31500001B804331087021005A1C45310978A2184332A6
S31500001B9002331170C1E72200012301990098089EC3
S31500001BA01A32B047431CE6D00137D1E7F0B50E0034
S31500001BB089B00492039005930C00097E0E9A433671
S31500001BC0782907D8622909D8002900D1BCE058290C
S31500001BD000D184E025004235297022E008006338F0
S31500001BE01528F7D802F096F916001F00F6FFF6FF43
S31500001BF0F6FFF6FF1F00F6FFF6FFF6FFF6FFA3005F
S31500001C0034009200F6FFF6FFB400F6FF3400F6FF4C
S31500001C10F6FF9600250013684235191D1B681160F2
S31500001C202B700123A1E013682068191D050609D54C
S31500001C301B681160002B02DA2D225B4232700A22E9
S31500001C405E4914E01B6811604006F3D51BB2F1E74C
S31500001C5013682568181D10601B682F063BD56F2971
S31500001C6062D00A225549200000254330057060687D
S31500001C70A060002803DB04252768AF4327600BB963
S31500001C80350060B13500B3FBF2FC60465043181ACC
S31500001C90085C013D2870180063468242F3D9082A81
S31500001CA009D12368DB0706D563682269934202DC03
S31500001CB03023013D2B70761B2661059B2100009386
S31500001CC00398049B07AAFFF703FF431C51D1012089
S31500001CD0404209B0F0BD6D06C1D59BB2BFE72300F7
S31500001CE04533197035491068256808C810602F06F5
S31500001CF016D5EA0702D52022154325601022002BAF
S31500001D00B1D12020256885432560ACE720232168D2
S31500001D100B43236023007821453319702849E2E7F5
S31500001D206F06E6D59BB2E4E7082224499BE71368D1
S31500001D302568181D616910601B682F0601D519609A
S31500001D4002E06D06FBD51980002335002361B4E758
S31500001D501368191D11601D6800212800626800F0D3
S31500001D60F9FF08B1401B606063682361002333708C
S31500001D70A3E72A00236904990398059DA847431CF5
S31500001D80A5D023689B0716D4079BE0689842A0DA83
S31500001D9018009EE72200012304990398059E193234
S31500001DA0B047431C00D192E70135E368079A9B1AB6
S31500001DB0AB42EFDCE8E70025F7E7C046B65F000078
S31500001DC0C75F00000FB40A4B13B51C6824B1A369A2
S31500001DD013B9200000F00EFF05AB2000049AA1689D
S31500001DE0019301F075FC16BC08BC04B01847C04648
S31500001DF0040000200023C25C0133002AFBD1581ED8
S31500001E007047F0B506000C6933690D00002087B0F5
S31500001E10A34268DB013CA20014318B180393330004
S31500001E2014339A180193039B10681B680133B0FBA7
S31500001E30F3F7009798422FD3002301980491029359
S31500001E4005930499009F08C9049199B27943029FAA
S31500001E501B0CC919009F7B430F0CBC4663441F0C27
S31500001E600297076889B2BFB2BC46059F9BB267441A
S31500001E70791A07683F0CFB1A0F14BC4663441F14FB
S31500001E8089B21B04194302C0049B03990597994222
S31500001E90D7D21368002B2BD02900300001F0D8F9D7
S31500001EA000281FDB31000020009B14310133009312
S31500001EB014350A6808CD92B210189AB2821A0868C8
S31500001EC01B0C000CC31A10141B18181492B21B0416
S31500001ED0134308C1039BAB42EBD2019AA300D3186C
S31500001EE01A6872B1009807B0F0BD136823B9013CB7
S31500001EF0019B043A9342F8D33461CDE71A6822B9BC
S31500001F00013C019A043B9A42F8D33461EAE7FFFFA9
S31500001F10F0B59DB002920393029B039C089309942B
S31500001F20446A0700259D74B9102000F009FF0200DD
S31500001F30786220B9EA21C24BC248FFF709F944602A
S31500001F4084600460C4607B6A196851B15A680123D1
S31500001F5093404A608B60380000F048FF00227B6A9D
S31500001F601A60039B002B1BDA01232B60039B5B008B
S31500001F705B080993099DB44BB34A2B4093421ED18B
S31500001F8042F20F73249A28031360029B000B184336
S31500001F90002801D100F0B8FD269B63B9AB4B25E0C4
S31500001FA000232B60E6E7AA4B0693AA4B269A1360FA
S31500001FB006981DB0F0BDA54B0693A74BF6E7089B08
S31500001FC0099C12931394129813990022002301F08E
S31500001FD0BBFF040060B10123249A1360269B002BEB
S31500001FE001D100F08EFD9D481860431E0693DFE781
S31500001FF01AAB01931BAB00933800129A139B01F0A6
S31500002000D9F96E00760D0590002E7BD012981399A3
S31500002010139B934A1B031B0B1A431100914B1894F5
S31500002020F6180022904B03F0BFF9904A904B02F04D
S3150000203035FF904A904B01F0B5FF040030000D00CB
S3150000204003F094FD8D4A8E4B02F028FF02000B0030
S315000020502000290001F0A6FF04000D0003F054FD46
S315000020600022029000232000290001F073FF58B1DE
S31500002070029803F07BFD2B00220001F065FF43422E
S315000020805841029B1B1A029301231693029B162B9F
S315000020900FD8129813997B4ADB009B181A685B6865
S315000020A001F058FF00284BD0029B013B029300230E
S315000020B016931A9B9E1B00230C933300013B0D9332
S315000020C004D501239B1B0C9300230D93029B002B2D
S315000020D038DB029A0D9B944663440D9300231592B8
S315000020E00E93229B0124092B65D8052B02DD0024C3
S315000020F0043B2293229B981E032865D801F000FF1B
S315000021002B3A38591A9B1B9A9E1840F23243F21802
S31500002110202A10DD40239B1A9D4040F2124302986C
S31500002120F318D840284303F051FD0123564C013ED5
S315000021300919189375E7202302989B1A9840F2E72D
S315000021401690B6E70C9B029A9B1A0C9353420E9379
S3150000215000231593C5E700230F93239B0A93079348
S31500002160002B13DC01231A000A93079323920DE038
S315000021700123F1E70023239A0F939446029B6344BD
S315000021800A9301330793002B00DC01230022786AAF
S31500002190426004321500143541689D4218D9380052
S315000021A000F0E4FD0690B8B9020040F2AA11374BE0
S315000021B0C2E60123DFE700230F942293013B0A9333
S315000021C0079300221333D1E701230F93023BF6E76F
S315000021D0013141605200DDE77B6A069A1A60079B6F
S315000021E00E2B00D9E5E0002C00D1E2E0029B002B8B
S315000021F063DD0F2223491340DB005B181D685E6810
S31500002200029B1C1102231093029BDB050BD512982F
S3150000221013991F4B14401A6A5B6A02F01DFA0323D6
S315000022200890099110931A4B14939CBB089809992E
S315000022302A00330002F010FA0890099158E0C046CF
S31500002240E55F0000FC5F00000000F07FE15F00003A
S31500002250D85F0000E05F0000E45F0000B55F0000AB
S315000022600000F03F01FCFFFF0000F83F61436F6391
S31500002270A787D23FB3C8608B288AC63FFB799F5099
S315000022801344D33F98610000000010FE7A600000FE
S315000022907061000001231C420BD0109B2800013303
S315000022A01093149B31001A685B6802F0F7FD050075
S315000022B00E00149B64100833B6E702231093029BAA
S315000022C0B3B1129813995C420F23B64A2340DB0040
S315000022D09B181A685B6802F0E1FD0126002308904E
S315000022E00991B14D2411002C00D095E0002BA3D10B
S315000022F0169B002B00D19CE0089C099D0022200023
S315000023002900AA4B01F026FE002800D191E0079B88
S31500002310002B00D18DE00A9B002B46DD029B00229C
S31500002320200029005E1EA24B02F0B8FD109B08900B
S315000023300991013310930A9B1098089C099D1493E8
S3150000234003F014FC22002B0002F0A8FD0022994B9A
S3150000235001F028FE10901191109A119B0892099392
S31500002360954A119B9446634417930993149B002B3B
S3150000237062D1002220002900904B03F015F8089A3C
S31500002380179B04000D0001F0F9FD002800D0A8E21B
S315000023908B481199844661440B0020002900089A55
S315000023A001F0D8FD002800D098E2129B139C0893F8
S315000023B009941B9B002B00DA70E1029A0E2A00DDBD
S315000023C06CE1D300774A9B185C681B680A930B94F0
S315000023D0239B002B00DBF7E0079B002B00DDF3E0DF
S315000023E0002B00D07AE20A980B990022734B02F078
S315000023F055FD089A099B01F0CBFD079E3500002884
S3150000240000D052E2069B069A0133089331231370DB
S31500002410029B013302934DE2344207D0109B0133F5
S3150000242010932A686B6802F039FD33006410083592
S3150000243059E7029E079B7FE7149B5A4A013BDB0044
S315000024400F999B181A685B68002951D000205D49D6
S3150000245002F002F9089A099B02F0A6FF069A069B6B
S3150000246094461793149B1090119163441993290075
S31500002470200003F049FB149003F078FB02000B00E8
S315000024802000290002F090FF179B179A013308934A
S31500002490149B040030331370109A119B0D0001F049
S315000024A059FD002875D122002B0000203F4902F07B
S315000024B07BFF109A119B01F04DFD002800D0CFE064
S315000024C0199B089A934200D16FE710981199002240
S315000024D0374B02F0E3FC364B10901191002220009E
S315000024E0290002F0DBFC089B04000D001793BEE7F1
S315000024F00898099902F0D2FC069A069B944608931E
S31500002500149B10901191634419932900200003F045
S31500002510FBFA179003F02AFB02000B0020002900AB
S3150000252002F042FF179B089A303313701300199A72
S31500002530013304000D00089393422CD11098119991
S31500002540069A149B94466344002208931D4B01F09F
S3150000255029FD02000B002000290001F00FFD0028D4
S3150000256000D07DE0109A119B0020164902F01CFF56
S3150000257002000B002000290001F0ECFC002800D12D
S3150000258013E7089B1A00013A08921278302AF8D00D
S315000025900893029652E00022054B02F07FFC0400ED
S315000025A00D00B2E798610000706100000000F03F86
S315000025B00000244000001C400000C0FC0000144045
S315000025C00000C07C0000E03F079B069E013B9B1974
S315000025D00C93089C099D0A9A0B9B2000290002F087
S315000025E03BF803F091FA079003F0C0FA0A9A0B9BA6
S315000025F002F054FC02000B002000290002F0D4FE79
S315000026003300079A013630321A700C9A08969A42AD
S3150000261037D102000B0001F0C5FC0A9A0B9B04009F
S315000026200D0001F0ABFCD0B90A9A0B9B20002900E3
S3150000263001F08AFC10B1079BDB0710D4380005991E
S3150000264000F0D4FB0023089A02981370249B0130F3
S315000026501860269B002B00D1AAE41A60A8E4029E0B
S31500002660089B0893013B1A78392A06D1069A9A42A2
S31500002670F7D13022069901360A701A7801321A709B
S3150000268087E70022A74B02F009FC00220023040082
S315000026900D0001F059FC00289DD0CFE70F9D0E9E3E
S315000026A00C9C9DB1229A012A66DC189A002A5DD0FC
S315000026B040F233429B180C9A0121D2180C920D9AC3
S315000026C03800D3180D9300F03BFC0500002C0EDDFE
S315000026D00D9B002B0BDD0D9A2300944200DD1300A9
S315000026E00C9AE41AD21A0C920D9AD31A0D930E9BD9
S315000026F0FBB10F9B002B54D0002E11DD29003200B8
S31500002700380000F0E1FC059A01000500380000F0F1
S315000027102DFC05991490380000F068FB149B059376
S315000027200E9B9A1BB34204D03800059900F0CCFCEE
S3150000273005900121380000F003FC159B0600002BD4
S3150000274031DD1A000100380000F0BEFC229B0600B5
S31500002750012B2DDD00230E93336903339B00F31801
S31500002760586800F0A7FB2023181A38E036231A9A77
S315000027700E9E0C9C9B1A9EE7079B5E1E0E9BB34209
S3150000278007DB9E1B079B0C9C002B94DAE41A0023A4
S3150000279091E70E9B159AF31AD3180E9615930026F9
S315000027A0F0E70E9AC0E700230E93229B012B12DC62
S315000027B000230E93089B73B9099B1B035BB95A4B05
S315000027C0099A134207D00C9B01330C930D9B0133DE
S315000027D00D9301230E93159B0120002BBCD10D9B5D
S315000027E01F22181803001340104245D00132D21A96
S315000027F0042A3EDD1C22D31A0C9AE418D2180C9235
S315000028000D9AD3180D930C9B002B05DD1A0038008A
S31500002810059900F0B1FC05900D9B002B05DD3100FC
S315000028201A00380000F0A8FC0600169B33B33100EE
S31500002830059800F00DFD002820DA029B0A22013BD4
S31500002840029338000023059900F0F2FA0F9B0590D9
S31500002850002B00D160E1002329000A22380000F095
S31500002860E7FA0A9B0500002B45DC229B022B0DDCB8
S3150000287041E0042AC7D013001C33BDE7079B002B99
S3150000288033DC229B022B30DD079B0A930A9B63B93C
S3150000289031000522380000F0CBFA06000100059849
S315000028A000F0D6FC002800DDACE5239BDB43029359
S315000028B0069B089300243100380000F097FA002D9B
S315000028C000D1BBE62CB1AC4203D02100380000F0A9
S315000028D08DFA2900380000F089FAAFE600263500A7
S315000028E0E3E70296149E35008CE50F9B002B00D182
S315000028F0C9E0079B0A93002C05DD29002200380059
S3150000290000F03AFC05000E9B2800F3B13800696818
S3150000291000F02CFA040058B9020040F2EA21034BF9
S31500002920FFF70AFB000024400000F07F7A600000F9
S3150000293029002B690C319A1C92000C30FEF7E2FD3F
S3150000294001222100380000F017FC069B0A9A0C931E
S31500002950013B9B1801222C0005001493089B134091
S315000029600F9331000598FFF74CFA0300210030332E
S315000029700D900598079300F06BFC2A000E9031002D
S31500002980380000F081FCC3680890109301230A9375
S31500002990109B23B90100059800F05AFC0A903800F4
S315000029A0089900F023FA0C9B0A9A01330893229B9C
S315000029B013430F9A134363B9079B392B27D00E9BFA
S315000029C0002B02DD0D9B313307930C9B079A1A707F
S315000029D071E70E9B002B04DB229A13430F9A1343D5
S315000029E003BB0A9B002BF0DD05990122380000F09D
S315000029F0C3FB3100059000F02BFC002804DC002806
S31500002A00E3D1079BDB07E0D5079B392BDAD13923C6
S31500002A100C9A1370089B0893013B1A78392A68D0E0
S31500002A200132D4E70A9B002B07DD079B392BEED03A
S31500002A30079B0C9A013313703DE70C9B079A1A709B
S31500002A40149B0C9A93423ED000230A220599380023
S31500002A5000F0EEF9002305900A2221003800AC426E
S31500002A6006D100F0E5F904000500089B0C9378E711
S31500002A7000F0DEF92900040000230A22380000F0E5
S31500002A80D7F90500F1E7079B0A9300243100059862
S31500002A90FFF7B7F9069B303018550A9B01340790AB
S31500002AA0A34207DD00230A223800059900F0C0F989
S31500002AB00590EBE70A9B0120002B00DD180000249F
S31500002AC0069B1B18089305990122380000F054FB59
S31500002AD03100059000F0BCFB00289BDC10B9079B79
S31500002AE0DB0797D4089B0893013B1A78302AFAD063
S31500002AF0E1E6069A9A428ED1029B01330293312374
S31500002B0099E7094BFFF772FA269B002B01D0FFF7D6
S31500002B104AFA064BFFF76AFA0A9B002BB5DC229BA2
S31500002B20022B00DDB2E6B0E7B45F0000D85F00001C
S31500002B30002310B50400036043608360818143660F
S31500002B401900C28103614361836108225C30FEF78C
S31500002B50E2FC054B24626362044BA362044BE3620E
S31500002B60044B236310BDC046553900007D39000073
S31500002B70B5390000E139000010B5024900F0B8F897
S31500002B8010BDC046D13C000070B568254A1E5543AD
S31500002B900E002900743100F0FDFC040040B1002154
S31500002BA02A00016046600C30A0606832FEF7B3FC74
S31500002BB0200070BD10B5024800F0BFF810BDC04639
S31500002BC01D03002010B5024800F0B8F810BDC0463D
S31500002BD01D03002010B5024800F0AFF810BDC04636
S31500002BE01E03002010B5024800F0A8F810BDC0462C
S31500002BF01E03002013B50400FFF7ECFFA36913B111
S31500002C00FFF7F0FF13BDA364E3642365134B144A77
S31500002C101B68A2620193A34201D10123A361200094
S31500002C2000F020F86060200000F01CF8A060200092
S31500002C3000F018F800220421E0606068FFF778FFD2
S31500002C4001220921A068FFF773FF02221221E06822
S31500002C50FFF76EFF0123A361D2E7C046A05F000025
S31500002C60792B0000F8B50700FFF7A4FF1E4B1E687E
S31500002C70B36913B93000FFF7BDFF4836B46873680F
S31500002C80013B03D533680BB33668F7E70C22A55E24
S31500002C90D5B92000154B5830E360656600F04CF856
S31500002CA0FFF790FF2000082229002560A5606560D7
S31500002CB025616561A5615C30FEF72DFC6563A56342
S31500002CC0A564E5642000F8BD6834D9E7042138001E
S31500002CD0FFF75AFF040030600028D5D1FFF772FFD6
S31500002CE00C233B60EEE7C046A05F00000100FFFF3B
S31500002CF0F7B5040006000027019148346368A5680B
S31500002D000093009B013B009304D52468002CF5D169
S31500002D103800FEBDAB89012B08D90E22AB5E01330C
S31500002D2004D029003000019B984707436835E8E73F
S31500002D300048704758010020704770477047FFFFF2
S31500002D4010B5034B0100186800F024FC10BDC04606
S31500002D5004000020C9B28218904201D100207047B9
S31500002D6003788B42FBD00130F6E7FFFF70B5456A6A
S31500002D7006000C0075B91020FFF7E2FF0200706232
S31500002D8020B96621174B1848FEF7E2F945608560C1
S31500002D900560C560756AEB688BB1736AA200DB6873
S31500002DA09B181868B8B901210D00A5406A1D3000AE
S31500002DB0920000F05FFB60B1446085600DE0212267
S31500002DC00421300000F056FB736AE860DB68002BD4
S31500002DD0E3D1002070BD02681A6000230361C3605E
S31500002DE0F8E7C046E55F0000EC60000070B5466A93
S31500002DF005000C0076B91020FFF7A2FF02006862FA
S31500002E0020B98A21084B0948FEF7A2F94660866078
S31500002E100660C6603CB16B6A6268DB6892009B180C
S31500002E201A6822601C6070BDE55F0000EC6000005F
S31500002E30F7B50E0001900C001D0000200F69143636
S31500002E403368013099B251431B0C534349190D0C99
S31500002E505B191D0C89B21B045B1808C68742EFDCA0
S31500002E6015B3A368BB4219DC63680198591CFFF7C8
S31500002E707DFF060028B90200B5210C4B0C48FEF771
S31500002E8067F9210023690C319A1C92000C30FEF779
S31500002E9039FB21000198FFF7A9FF34003B1D9B0079
S31500002EA0E3185D607B1C23612000FEBD7A60000094
S31500002EB0EC600000020C030000200AB91B0410306D
S31500002EC01A0E0AB908301B021A0F0AB904301B0180
S31500002ED09A0F0AB902309B00002B03DB01305B001E
S31500002EE000D420207047036802000721180008401C
S31500002EF00B420DD0063900200B4205D102300342A9
S31500002F0003D0CB400800136070479B081360FBE7B3
S31500002F1099B209B910201B0CD9B209B908301B0A9D
S31500002F20190701D104301B09990701D102309B080A
S31500002F30D907EBD45B080130002BE7D12020E3E76B
S31500002F4010B50C000121FFF711FF30B9020040F265
S31500002F504011044B0448FEF7FBF80123446103616A
S31500002F6010BDC0467A600000EC600000F0B50B6949
S31500002F70140012690D0089B0934201DA25000C0095
S31500002F802F6926696968BB190293AB68BA1993421F
S31500002F9000DA0131FFF7EAFE019030B9020040F293
S31500002FA05D11474B4748FEF7D3F8019B00221433C7
S31500002FB09C46BB199B0063440393634603998B426B
S31500002FC02CD32B0022001433BF0014320693B60014
S31500002FD0DB19049393190793042305932B00049993
S31500002FE015330092994205D34B1B153B9B080133C1
S31500002FF09B000593079B009A9A4211D3029B002BD4
S3150000300006DD039B043B03931B680093002B52D001
S31500003010019B029A18001A6109B0F0BD04C3CDE7FE
S31500003020009B1B6898B2D8B167460024069E02CE64
S315000030303A688BB2434392B29B181B190C0C44435B
S315000030403A68110C61181C0C09190C0C9BB2090486
S315000030500B4308C7049BB342E9D86346059A9C50C4
S31500003060009B1B681E0C06B363462C0060460027B7
S315000030701B68143422689BB291B271430268120C29
S315000030808918CF1939040B43036002CC4368090C35
S3150000309071439BB23F0CCB18049ADB191F0C04300A
S315000030A0A242E7D8624605995350009B0433009329
S315000030B004239C449EE7029B013B02939EE7C04685
S315000030C07A600000EC600000F7B5032315000700E6
S315000030D00E001A401D4208D02449013A9200525867
S315000030E000233100FFF7A4FE0600AD10DDB37C6AB5
S315000030F07CB91020FFF724FE0200786228B940F25E
S31500003100AE111B4B1B48FEF723F844608460046035
S31500003110C4607B6A9C6801934CB940F27121380007
S31500003120FFF70EFF019B0400986000230360012354
S315000031301D420AD0310022003800FFF717FF310088
S3150000314001903800FFF752FE019E6D105DB12068B8
S3150000315038B9220021003800FFF708FF002320605D
S3150000316003600400E3E73000FEBDC0466062000075
S31500003170E55F0000EC600000F0B50C001700236965
S31500003180551187B0EB180293013301934968A36880
S315000031900490019A93420FDB0498FFF7E7FD0023A2
S315000031A0020006001900143260B9DA310200264B1B
S315000031B02648FF31FDF7CCFF01315B00E9E79800B7
S315000031C011500133AB42FADBEB43DB171D401F21E5
S315000031D023003800AD0055192269143392000840C7
S315000031E084469A180F4229D00131091A0591002107
S315000031F0039567461868B8400143039802C002CB9E
S3150000320003900598C1409A42F3D820001530042354
S31500003210824204D3131B153B9B0801339B00E950E4
S3150000322011B1029B02330193019B0498013B2100DB
S315000032303361FFF7DBFD300007B0F0BD02CB02C5FE
S315000032409A42FBD8F0E7C0467A600000EC600000C6
S3150000325002690B6930B50400D01A9A420DD19B0061
S3150000326014341431E218C918043A043915680B6885
S315000032709D4203D001209D4203D330BD9442F3D337
S31500003280FBE74042F9E7FFFFF0B50E00070011002B
S31500003290300087B01400FFF7DBFF050088B9010096
S315000032A03800FFF763FD020028B940F232213F4B98
S315000032B03F48FDF74DFF012345610361100007B04C
S315000032C0F0BD01230193002804DB230034001E0017
S315000032D00023019338006168FFF748FD020018B922
S315000032E040F24021314BE3E7019B0027C360206990
S315000032F014340194019B84001B1934000293336932
S315000033001434990063180393130014339C460593F1
S31500003310019B0493049B02CC20CB0493ABB2DF1930
S315000033208BB2FB1A090C2D0C6D1A19146D18614617
S315000033302F149BB22D042B4308C1039B8C46A3423A
S31500003340E8D83100039C153104238C4204D3A31B17
S31500003350153B9B0801339B000199CC180599260063
S31500003360CB189C4602998E420FD3029EE11E002581
S315000033708E4204D3310003310C1BA408A5005B194F
S31500003380043B196879B1106198E702CE8DB2ED1948
S315000033900F0C291479180F14ADB209040D436146B8
S315000033A020C18C46DEE70138EAE7C0467A600000B5
S315000033B0EC600000F7B5012114001E00089FFFF71E
S315000033C0D5FC050030B9020040F20A31244B2548ED
S315000033D0FDF7BEFE33037600760D1B0B0EBB019385
S315000033E02CB368460094FFF77EFD009CE8B1019B74
S315000033F020211A00091A8A40C34022436A610193B8
S31500003400019CAC61631E9C4101342C61C6B1164B14
S31500003410F61835233618181A099B3E6018602800DE
S31500003420FEBD802252031343D9E76C61E8E701A889
S31500003430FFF759FD0124019B2C616B612030E5E704
S315000034400A4BC0180A4B3860E3189B00EB18586902
S31500003450FFF730FD6401099B241A1C60DFE7C046B4
S315000034607A600000EC600000CDFBFFFFCEFBFFFFA3
S31500003470FFFFFF3F70B50D0C130CEDB963B989B2B0
S3150000348094B24C43210000F085F80500D0B122002B
S315000034900021FEF740F815E01D1C0B1C92B289B204
S315000034A09CB25143ABB263430C0C1C19220C32B9CB
S315000034B0240489B20C43E5E70BB9131CEEE70C2391
S315000034C000250360280070BD70B5050079B10C1F9A
S315000034D02368002B00DAE418280000F0BFFC1C4A21
S315000034E013682BB963601460280000F0BFFC70BD40
S315000034F0A34208D9216860188342F3D118685B6833
S3150000350041182160EEE71A005B680BB1A342FAD9B5
S3150000351011685018A0420BD1206809185018116084
S315000035208342E1D118685B68411811605360DBE79C
S31500003530A04202D90C232B60D6E72168601883428B
S3150000354003D118685B684118216063605460CBE75B
S315000035502003002070B50E4E0D003168040011B92D
S3150000356000F0E8F930602900200000F0E3F9431C80
S315000035700AD00323C51C9D43A84207D0291A200060
S3150000358000F0D8F9431C01D101256D42280070BD19
S3150000359024030020F7B50322CB1C9343083306000F
S315000035A01F000C2B32D20C27B94231D8334D3000D4
S315000035B000F054FC2B681C00002C2ED13900300082
S315000035C0FFF7C8FF0400431C1ED12C682500002D00
S315000035D04AD123682900E3183000019300F0AAF9C4
S315000035E0019B834243D123680337FF1A03239F437A
S315000035F008370C2F00D20C2739003000FFF7AAFF3E
S31500003600431C34D02368DF19276013E0002BCBDA84
S315000036100C23002533602800FEBD2268D11B20D470
S315000036200B2917D9E2192760A34211D12A606368D2
S31500003630116053603000250000F018FC07220B359E
S31500003640231D9543EA1A9D42E5D05B1BA350E2E792
S315000036505A60ECE76268A34201D12A60EAE75A6041
S31500003660E8E723006468A7E72C006D68AFE70C2342
S315000036703000336000F0FAFBCDE7C046200300209F
S31500003680936810B5013B9360002B04DA9469A3425A
S3150000369007DB0A2905D01368581C1060197008004A
S315000036A010BD00F0A3F90100F9E7F8B506000F0018
S315000036B01400D518AC4201D1002007E021783A0069
S315000036C03000FFF7DDFF0134431CF3D1F8BDFFFFE7
S315000036D0F0B5A1B007000C001E00039218B1836973
S315000036E00BB9FFF787FA8B4B9C421AD17C68636E45
S315000036F0DB0705D4A3899B0502D4A06DFFF71DFB4C
S31500003700A3891B0701D52369E3B92100380000F01E
S31500003710D1F9B8B1636EDB070DD50120404221B067
S31500003720F0BD7D4B9C4201D1BC68E0E77B4B9C42DF
S31500003730DDD1FC68DBE7A3899B05EED4A06DFFF71E
S31500003740FDFAEAE7002308AD6B6120336B76103390
S31500003750AB760796039E33780BB1252B4DD1039B91
S31500003760F31A0593039B9E420DD0059B210038005A
S31500003770039AFFF79AFF431C00D1B3E06A69059BE1
S31500003780944663446B613378002B00D1AAE0012292
S31500003790731C0393002352426A6004A954325218E0
S315000037A02B60EB60AB601370AB65039B0522197849
S315000037B05B48FFF7CFFA039B5E1C00BB2A68D30663
S315000037C004D5532304A95B1820211970130704D5C7
S315000037D0532304A95B182B211970039B1B782A2BF2
S315000037E016D0002140F20A0CEB68039E3278701C5A
S315000037F0303A092A4CD989B917E00136ABE7484B6C
S315000038002A68C01A0123834013432B600396CCE732
S31500003810079B191D1B680791002B01DB0B9304E026
S315000038205B42EB60022313432B6033782E2B0AD1C5
S3150000383073782A2B35D1079B02361A1D1B6807920F
S31500003840002B2BDB0993032231783648FFF782FAE7
S3150000385038B1344B2A68C01A4023834013430136DB
S315000038602B603178731C06222F4803932976FFF7C5
S3150000387071FA002845D02D4B43BB0722079B07331F
S315000038809343083307936B69049A9B186B6161E74E
S3150000389061464B43060001219B18A7E701235B42C3
S315000038A0D0E7002340F20A0C1A0001366B6031782B
S315000038B0701C3039092903D9002BC4D00992C2E7FC
S315000038C063465A43060001235218F0E707AB0093FC
S315000038D0220029003800164BFDF7BEFE0490049B1B
S315000038E00133D0D1636EDB0705D4A3899B0502D4CF
S315000038F0A06DFFF723FAA3895B0600D50DE70D98A7
S315000039000DE707AB0093220029003800084BFEF7AD
S315000039104DF9E3E7AC600000CC6000008C6000006D
S315000039206C620000726200007662000059160000A8
S31500003930AB360000002370B5054D040008002B606F
S31500003940FDF7C2FC431C02D12B6803B1236070BD96
S315000039502803002070B50C000E25495F00F08EFA92
S31500003960002803DB636D1B18636570BDA389024ADB
S315000039701340A381F9E7C046FFEFFFFFF8B51F002C
S315000039808B8905000C001600DB0505D50E23C95EE4
S315000039900022022300F0D8F9A389054A2800134023
S315000039A0A38132000E23E15E3B0000F071F8F8BD02
S315000039B0FFEFFFFF70B50C000E25495F00F0C4F95C
S315000039C0A389421C03D1054A1340A38170BD41F26D
S315000039D000021343A3816065F8E7C046FFEFFFFFCF
S315000039E010B50E23C95E00F0D9F810BDF8B5050074
S315000039F00E00140018B183690BB9FFF7FBF8214BD1
S31500003A009C422CD16C68A369A360A3891B0730D59F
S31500003A102369002B2DD023682269F7B2981A6369AF
S31500003A20F6B2834204DC2100280000F051F930BBD5
S31500003A30A3680130013BA36023685A1C22601F70F3
S31500003A406369834204D0A389DB0706D50A2E04D115
S31500003A502100280000F03CF988B93000F8BD0A4B77
S31500003A609C4201D1AC68CEE7084B9C42CBD1EC68B6
S31500003A70C9E72100280000F01DF80028CBD0012658
S31500003A807642EAE7AC600000CC6000008C60000083
S31500003A9070B50400080011001A000023044D2B60C5
S31500003AA0FCF760FD431C02D12B6803B1236070BD97
S31500003AB028030020354B70B51D6806000C0025B1A3
S31500003AC0AB6913B92800FFF795F8314B9C420FD12B
S31500003AD06C680C23E25E93B211072CD4D90611D47C
S31500003AE009230120336037331343A381404270BD5D
S31500003AF0284B9C4201D1AC68EBE7274B9C42E8D1AE
S31500003B00EC68E6E75B0712D5616B41B123004433ED
S31500003B10994202D03000FFF7D7FC002363632422CA
S31500003B20A3899343A3810023636023692360082349
S31500003B30A2891343A38123695BB940F2802140F235
S31500003B400022A3890B40934203D02100300000F0ED
S31500003B5035F90C22A35E01201A0099B202400342F5
S31500003B600FD00022A26062695242A261226900203F
S31500003B70002ABCD10A06BAD540221343A3810138D4
S31500003B80B5E7880700D46269A260EFE70400002069
S31500003B90AC600000CC6000008C600000002370B5B3
S31500003BA0054D040008002B6002F038F8431C02D1D2
S31500003BB02B6803B1236070BD28030020F7B58B89FD
S31500003BC005000C001A075DD44A68002A04DC0A6C5A
S31500003BD0002A01DC0020FEBDE76A002FFAD0002291
S31500003BE041F200012E682A601A000A400B4232D0C8
S31500003BF0606DA3895B0705D56368C01A636B0BB15B
S31500003C00236CC01A0200216A00232800E76AB8471D
S31500003C10A189431C06D12B681D2B30D82B4ADA40CC
S31500003C20D3072CD50023636023692360CB0404D516
S31500003C30431C01D12B6803B96065616B2E600029B6
S31500003C40C8D023004433994202D02800FFF73CFC39
S31500003C5000206063BFE701232800216AB847431CA0
S31500003C60C7D12B68002BC4D01D2B01D0162B01D138
S31500003C702E60AFE74023A2891343A381ABE740231D
S31500003C800B43FAE70F69002FA4D00A680F60D21B16
S31500003C90019200229B0700D14A69A260019B002B7A
S31500003CA098DD3A002800019B216AA66AB0470028E1
S31500003CB006DC40230120A28940421343A3818AE700
S31500003CC0019B3F181B1A0193E8E7C04601004020FC
S31500003CD00B6970B505000C0013B90025280070BDEE
S31500003CE018B183690BB9FEF785FF144B9C421BD1B3
S31500003CF06C680C22A35E002BEFD0626ED20704D450
S31500003D009B0502D4A06DFFF718F828002100FFF7E5
S31500003D1055FF636E0500DB07E0D4A3899B05DDD460
S31500003D20A06DFFF70BF8D9E7054B9C4201D1AC68B3
S31500003D30DFE7044B9C42DCD1EC68DAE7AC600000BC
S31500003D40CC6000008C60000070B504000800110013
S31500003D501A000023044D2B6001F07CFF431C02D1A6
S31500003D602B6803B1236070BD2803002070B50E00D8
S31500003D701D000E23C95E140096B0002908DA0C2235
S31500003D80B35E00222A601B0611D440F200430FE006
S31500003D906A4600F093F80028F1DB4FF20003019920
S31500003DA01940054BC9184B4259412960EDE740239C
S31500003DB00020236016B070BD00E0FFFFF7B50226B5
S31500003DC08B8905000C00334206D02300473323605D
S31500003DD0236101236361F7BD6A4601ABFFF7C6FFA6
S31500003DE0009907002800FFF7D5FB40B90C22A35E17
S31500003DF09A05F0D4032293431E43A681E5E70E4BB2
S31500003E00AB628023A28920601343A381009B2061BB
S31500003E106361019B63B128000E23E15E00F060F848
S31500003E2030B10322A38993431A0001231343A381CC
S31500003E30A0890743A781CEE7792B000082B001B99C
S31500003E4001A910002AB133B113780B601078431E14
S31500003E50984102B0704702204042FAE710B5024886
S31500003E60FEF76BFF10BDC0461C03002010B50248CC
S31500003E70FEF764FF10BDC0461C03002070B50400A9
S31500003E80080011001A000023044D2B6001F0ECFE1F
S31500003E90431C02D12B6803B1236070BD28030020A8
S31500003EA00300080029B1FF2A04D98A2201201A60DA
S31500003EB04042704701200A70FBE7FFFF002370B500
S31500003EC0064D0400080011002B6001F0B1FE431CF2
S31500003ED002D12B6803B1236070BDC04628030020C1
S31500003EE0002370B5054D040008002B6001F0AAFE02
S31500003EF0431C02D12B6803B1236070BD2803002048
S31500003F0002B4714649084900095C49008E4402BC66
S31500003F107047C04603B47146490840004900095E2F
S31500003F2049008E4403BC70478446100062468C46A6
S31500003F301900634600E0C0461FB500F04FFF002899
S31500003F4001D40021C8421FBD10B500F0A1FE4042B9
S31500003F50013010BD10B500F041FF002801DB002044
S31500003F6010BD012010BDC04610B500F037FF002877
S31500003F7001DD002010BD012010BDC04610B500F0C7
S31500003F80C9FE002801DC002010BD012010BDC0467E
S31500003F9010B500F0BFFE002801DA002010BD012098
S31500003FA010BDC046F8B557464E46DE4645461C008F
S31500003FB0E0B517000D000903420F490A11436200DC
S31500003FC0520DC30020039246400AE20F7C0F6E009A
S31500003FD004439346A146760DED0FFF00954200D1AE
S31500003FE0A0E05046301A8446002800DC81E05246A4
S31500003FF0002A00D1C0E040F2FF72964200D12CE1C7
S31500004000802220001204104381466246382A00DDD1
S3150000401073E11F2A00DDDEE1604620224C46121ABB
S3150000402094403800A04664469740E04044467A1ED5
S31500004030974104434A466046C2402743891ADC1B1F
S31500004040A3429B415842081A030200D4DCE0400216
S31500004050430A98464346002B00D10FE14046FDF740
S315000040602DFA0300083B202221004046D21A984030
S31500004070D1409C400843B34200DA0EE19B1B5A1C18
S315000040801F2A00DDB2E02023010026009B1A9C4077
S315000040909940D640631E9C413143D04000260C43D4
S315000040A0630709D00F232340042B05D0231DA34209
S315000040B0A441644200191C00030200D4A7E040F2A8
S315000040C0FF7101368E4200D1C2E0CB4BE4081840A6
S315000040D04307400223430E40040B3205ED072243FB
S315000040E02A4318001100F0BCBB46B246A946A046BA
S315000040F0F8BD002850D05046801B8446002E00D0C4
S3150000410030E108001843002800D1C3E16246501E82
S31500004110012A00D12CE240F2FF74A44500D1DCE173
S31500004120844627E15246B21A9446002A00DCB8E0DB
S315000041305246002A48D040F2FF72964200D1C2E1B0
S31500004140802220001204104381466246382A6EDC23
S315000041501F2A00DC6FE14846203AD0406246202AFA
S3150000416005D064464022121B4C46944027433C002F
S31500004170621E944104435EE022003A43002A00D1C5
S315000041800FE10200013A012800D193E140F2FF70ED
S31500004190844562D0944638E740F2FE74701C0442AF
S315000041A000D0C8E008001843002E00D078E10028AF
S315000041B000D1D0E148463843002800D0E2E1DB08D0
S315000041C04A071343CC082BE022003A43002A00D1C9
S315000041D07EE162466046013A012800D1E6E040F2FF
S315000041E0FF70844500D16EE19446AEE701001F3BA7
S315000041F0D940202A03D040239A1A90400443631ED4
S315000042009C41002000260C43630700D04AE7B446D1
S31500004210E40843072343C40840F2FF72944520D0C4
S3150000422040F2FF7662462403240B164055E74C46BF
S315000042303C43621E9441E4189C429B4158424018FC
S315000042400302E1D540F2FF7301369E4200D0B8E08A
S3150000425040F2FF76002400233FE7DB084A071343BA
S31500004260CC081A002243002A00D1EEE18022120374
S315000042701443240340F2FF76240B2EE72000FDF7BB
S315000042801DF9030018331F2B00DCECE608388440C8
S3150000429020000024B34200DBF0E6574AF61A10402D
S315000042A0FEE682B35246921B9446002E00D1B1E040
S315000042B040F2FF72924500D117E1802212041143A9
S315000042C06246382A00DD17E11F2A00DD8BE16046D1
S315000042D020220C00121A6646180093409440F040C3
S315000042E05A1E9341F14004431C438944E419BC42DD
S315000042F08041404256464844A2E74A463A431700A0
S315000043007A1E97419BE640F2FE70721C104200D066
S31500004310A5E00A001A43002E00D0FFE0002A00D1D3
S315000043204FE122003A43002A00D04FE14A07DB085A
S315000043301343CC0874E74846DC1B0A1AA3428041A3
S315000043404042804610004246801A02008046120211
S3150000435000D595E003002343002B00D07AE6002425
S3150000436000255DE740F2FF70824500D1B5E0802070
S31500004370000401436046382840DC62461F2800DD01
S31500004380BFE020200C00801A1D0083408440D540E9
S31500004390D1404A46581E83412C43521A9146234324
S315000043A02FE0DB084A071343CC0835E7DC199C42AB
S315000043B09B4149445B42C8180126030200D423E707
S315000043C002260D4A63081040012214401C43C3070D
S315000043D01C43400864E64C46203AD4406246202AF4
S315000043E005D060464022121A4846904007437A1E7E
S315000043F09741274323E6C046FFFF7FFF0B43591E25
S315000044008B41FC1AA74280414B4640425D465646C8
S31500004410181A19E60A001A43002A00D1C4E06246B7
S315000044206046013A012800D1ECE040F2FF70844575
S315000044305BD0944644E7604620224C46121A9440CC
S315000044403800A04664469740E04044467A1E9741AD
S3150000445004434A466046C2403C438918EBE640F2B4
S31500004460FF70824200D1F3E6DF199F429B41494427
S3150000447058420818C4077F0816003C434008C3E6A4
S31500004480FC1AA742BF414B467F42591ACB1B98469E
S315000044905D46DFE56307FF085D463B43E408BBE690
S315000044A0002800D085E04B463B43B3B98024002565
S315000044B02403DBE6DC1B4A46A3429B41881A5B4287
S315000044C00126C01AC0E54A07DB081343CC08C8E634
S315000044D04A07DB081343CC089EE64B464A46FF08CC
S315000044E05B075D463B43D408BBE64B464A465B0743
S315000044F0FF083B43D408B4E60B431C00631E9C41F3
S31500004500F4E60C002038C440202A03D04020801A4C
S3150000451081400B43591E8B41234372E7002AE4D0A6
S3150000452022003A43002ACED04A07DB0813438022F2
S31500004530CC081203144208D04946C908114204D1D6
S315000045404A460C00FB08520713435A0FDB0052077A
S31500004550DB08134385E64B463B43002B00D1FEE6C2
S315000045604B464A46FF085B075D463B43D40857E681
S31500004570FC1AA742BF414B467F42581A5D460126A8
S31500004580C01B61E54A46DC1B881AA342924152428F
S31500004590801A02023DD5FC1AA742BF414B467F4214
S315000045A0581A5D46C01B7BE56307FF083B43E408DA
S315000045B032E648463843DB0888BB4A071343CC0833
S315000045C04FE66307FF083B43E40829E6DC199C42F3
S315000045D09B4149445B42C818030200D414E61D4BB4
S315000045E00126184010E60C00203AD4406246202AE4
S315000045F004D040226046121A91400B435A1E934142
S315000046001C4373E6DC19BC42BF4149447F42C819CA
S31500004610D2E623000343002B00D1A0E6F4E54807C9
S31500004620CC088021090303430C4208D04A46D0082F
S31500004630084204D15D460400FB0851070B435A0F9C
S31500004640DB00DB08520713430BE6002340F2FF763C
S315000046501C0042E5FFFF7FFFF0B557464E46454634
S31500004660DE46E0B58146050048000C03400D924643
S315000046701F0087B0240BCE0F002800D17DE140F249
S31500004680FF73984200D19AE16B0FE4001C4380232C
S31500004690D14A1B04234398469446030040F200097E
S315000046A040F2000B6344ED0001937B003C035B0D7D
S315000046B05046240BFF0F002B00D13CE140F2FF7265
S315000046C0934200D190E1420FE40014438022120489
S315000046D01443C14AC10094460020019A6344D31A88
S315000046E0019333004A467B4002930F2A28D8BB4BDE
S315000046F092009A58974602965B46022B16D0032BD9
S3150000470000D1B7E2012B00D0F1E000220024002501
S31500004710029B12052243DB071A432800110007B04B
S31500004720F0BCBB46B246A946A046F0BD40F2FF72B9
S3150000473000240025ECE7A0460D0083460297DBE740
S31500004740444500D2E9E100D1E4E12F0040460025CE
S31500004750019B013B01930E0E0A024FF6FF712402E4
S3150000476026433140240CB0FBF4FC8B4661465B4685
S31500004770594363466343C01A0304380C1843814205
S3150000478008D901235B42634480199846864200D8C3
S3150000479028E2C446401AB0FBF4F95B464946594341
S315000047A04B464FF6FF786343C01A434600043B402E
S315000047B01843814206D94B4680195F1E864200D8AF
S315000047C007E2B9466346411A18044B4603434FF6BF
S315000047D0FF7C98461F0C130C9A46604643461840C9
S315000047E06346134004971F0047430397049F0593AE
S315000047F07B439946534658435F43039B48441B0CEF
S315000048009C466044814503D980235B029C466744ED
S31500004810030C994603044FF6FF704F449946039BD9
S3150000482018404844B94202D312D1854210D201231E
S315000048305B424344AD18994695429B415B429C4678
S31500004840B44461448E4200D2B0E100D1ABE1C84627
S31500004850281A8542AD41CF1B6D427F1BBE4200D157
S31500004860E9E1B7FBF4F123005D464B434D43FF1AE4
S315000048703F04030C1F43BD4200D97CE17F1BB7FBFD
S31500004880F4F56C435B463F1B4FF6FF746B433F04E6
S3150000489020409B463843834200D963E15B460904C6
S315000048A00D43C01A059B2F0C1C007B434FF6FF716E
S315000048B09C46534629404C43594361448946210C42
S315000048C049445F438C4503D980235B029C46674479
S315000048D00B0C9C46BC444FF6FF7709043C40091973
S315000048E0604500D20AE100D105E10122154340F2FC
S315000048F0FF3C019A6244002A00DCB2E06B0700D05C
S3150000490043E1ED084346DB0107D54346344A40F20E
S31500004910004C13409846019A624440F2FE718A4266
S3150000492000DD03E7434659070D4340F2FF715C0281
S31500004930240B0A40ECE651462143002900D17FE0D2
S31500004940002C00D100E12000FCF7B8FD02000B3A74
S315000049501D239B1A52460100DA40534608398B4004
S315000049608C4019001443019B9C466044030040F2AE
S31500004970F33C634400200193B3E64B462343984639
S31500004980002B55D0002C00D1CEE02000FCF796FD80
S31500004990010002000B391D235B1A49461000D9405D
S315000049A0083884400B004D462343984685400D4801
S315000049B040F20009831A40F2000B019375E64B465C
S315000049C0234398465BBB40F2FF73002540F208097B
S315000049D040F2020B019368E601FCFFFF88630000CA
S315000049E0FFFFFFFE0DFCFFFF5146214359B902238D
S315000049F04A461A439146A54A019B944663440024BD
S31500004A00022001936DE603234A461A4391469F4AC4
S31500004A10019B9446634451460320019361E640F2AC
S31500004A20FF73A04640F20C0940F2030B01933CE6EB
S31500004A300023002540F2040940F2010B019334E6FD
S31500004A404A4601231A4391460024012049E60023E1
S31500004A50802400250293240340F2FF7258E60125C4
S31500004A606D420120801A382800DD4EE61F2800DC42
S31500004A70C1E01F21434649428A1AD3401A00202822
S31500004A8006D040F23E4C4346019961448B401D439B
S31500004A90691E8D41290011430722150000240D408F
S31500004AA00A4200D1D9E00F2000220840042800D194
S31500004AB0D0E0081D8842894149425218010013027C
S31500004AC000D4C7E001220024002521E680224346C7
S31500004AD01203134207D0144205D1144324030D00D8
S31500004AE0240B0297B8E78024434624031C4324037F
S31500004AF0240B0296B0E7002900D1F8E630186F1EA5
S31500004B00B04200D28FE0604500D2AAE000D1B8E002
S31500004B103D00EAE6A94200D917E643466A08DF07E0
S31500004B2058081743ED0716E64846FCF7C7FC010090
S31500004B300200153120321C2900DC2CE74B460838D0
S31500004B4083400025984632E7FCF7B8FC03001A00BC
S31500004B50153220301C2A00DCFAE65446083B0021B8
S31500004B609C4000E780196C1E864271D883426FD93B
S31500004B70023D801992E64B1EBF199C46BE4265D87F
S31500004B80BD4263D90239BF1978E60F2129400429AD
S31500004B9000D1B6E605214942A94289410435494278
S31500004BA0ED088844AEE6AA4200D950E68F4204D802
S31500004BB000D04CE6A84200D849E60223AD185B4275
S31500004BC09C4695429B415B42E0449C46B44461440A
S31500004BD03EE6814200D8F4E502235B4298468019FE
S31500004BE0C144EFE5814200D8D3E502235B429846F3
S31500004BF08019C444CEE540F21E4C019A2C00624452
S31500004C00414695409140C4406A1E95414246214323
S31500004C102943C2404B0700D151E70F200840042822
S31500004C2000D046E74BE73D00604500D05DE6914287
S31500004C3000D05AE65BE640F2FF3C019A6244002A45
S31500004C4000DC0CE70121002588445BE6614615E699
S31500004C50250023E655075202140BC90800220D430E
S31500004C6056E554009442924152429619023D220062
S31500004C708019D9E78024434624031C432403240BCC
S31500004C80EAE68A42EDD33D00D1E7C04601F8FFFFD0
S31500004C90F0B54E464546DE4657468446E0B5050025
S31500004CA040F2FF70170090461A03120B0E034C00D9
S31500004CB091465A00DB0F9B46360B640DC90F520D09
S31500004CC0844218D082420FD0012094420DD14E4525
S31500004CD00BD10120C44508D1594518D02CB9300054
S31500004CE02843431E984100E00120F0BCBB46B24673
S31500004CF0A946A046F0BD33002B430120002BF4D17A
S31500004D00A242F2D14B463B43002BEED1E1E7002015
S31500004D10EBE7C046F0B54746CE460400180016003D
S31500004D2040F2FF751B031B0B4A00994680B54300F2
S31500004D300F03A446B0463F0B520DC90F5B0DC00FC3
S31500004D40AA4212D0AB4215D00ABB3C4313B94D461A
S31500004D502E431EB3B4B1814224D00220013908404B
S31500004D600138C0BCB946B046F0BD3D0025435DBB29
S31500004D7093420CD14D462E4336BB002AEBD13C4321
S31500004D80002CE8D10028ECD101204042E9E7002BB5
S31500004D90E1D14C462643002EDDD1DEE70020002C73
S31500004DA0DFD0DAE79A420ADCECDB4F45D5D80ED0E5
S31500004DB000204F45D5D20029E6D00800D1E743426E
S31500004DC0584140000138CCE702204042C9E7C445BB
S31500004DD0C3D80020C445C4D2EDE7C046F0B5474667
S31500004DE0CE4604001800160040F2FF751B031B0B8D
S31500004DF04A00994680B543000F03A446B0463F0BD0
S31500004E00520DC90F5B0DC00FAA420AD0AB420DD09E
S31500004E101ABB3C437BB94D462E4366B900209CB174
S31500004E200CE03D00254375B9934216D14D462E43FD
S31500004E304EB90AB93C435CB1814215D00220013912
S31500004E400840013800E00220C0BCB946B046F0BDBB
S31500004E500028F9D101204042F6E7002BECD14C4660
S31500004E602643002EE8D1E9E79A4204DD4342584141
S31500004E7040000138E8E79A42EADB4F45DED806D023
S31500004E8000204F45E0D20029E4D00800DCE7C44505
S31500004E90D4D80020C445D7D2F5E7C046F0B557466A
S31500004EA045464E46DE46E0B598464B000D035B0D83
S31500004EB00600924687B02D0BCF0F002B00D17CE168
S31500004EC040F2FF72934200D196E1420FED00154386
S31500004ED0802212041543DD4A40F20009944640F24E
S31500004EE0000B6344C4000093434642461E035B0026
S31500004EF0D20F5B0D51469046360B002B00D13BE19D
S31500004F0040F2FF72934200D182E14A0FF600164347
S31500004F10802212041643CD4AC8009446009A634480
S31500004F2094469C44634640F2000C0093009A434624
S31500004F30013201924A467B400F2A25D8C449920085
S31500004F408A589746434635000400E3465A46022AE5
S31500004F5015D0032A00D120E2012A00D0E1E0002288
S31500004F600025002412052A43DB071A4320001100FE
S31500004F7007B0F0BCBB46B246A946A046F0BD40F21B
S31500004F80FF7200250024EDE74FF6FF7C6146270CF3
S31500004F900C40020C08402100414389460100794338
S31500004FA088461100794303910291210051438C46B2
S31500004FB04946090C8A46C444D4440492E04505D9BE
S31500004FC08022520290460399414402916146090C9F
S31500004FD08B4661464FF6FF7809048C4642464946A1
S31500004FE01140894662464A440392320C9446424630
S31500004FF02100164071436246884631005443794386
S31500005000574342468946120C92464C445444A142A8
S3150000501003D98022520291464F44220C91463A000F
S3150000502041464FF6FF774A44394005922A0C3D40E7
S3150000503088462F0011004743414310008946390C2A
S315000050408A46240444449046049AA34450436A433F
S315000050504A445244914503D980214902894648442D
S31500005060110C894648444FF6FF79494612043940E7
S3150000507092462F00424677438A445643414662464B
S31500005080514355433A0C9446AD1965448846AE42A1
S3150000509003D9802252029446E0444FF6FF794946EE
S315000050A02A04394094460F00029E05995E44A642A2
S315000050B0A44167448C46644267443A195644944670
S315000050C056459241824652429146E244D144824537
S315000050D08041914592418F42BF41A445A44152422D
S315000050E0404210434A4664427F4227432D0C7F19B3
S315000050F0D50D039A74021443621E94414A463F1822
S315000051004744F60D7F02344352023D431443FA01ED
S3150000511000D423E10120620804401443EA07144343
S315000051206D08019940F2FF328C466244002A00DC89
S31500005130B4E0610709D00F202040042805D0201DC7
S31500005140A042A44164422D190400E90106D5414A52
S31500005150019915408C4640F20042624440F2FE71CD
S315000051608A4200DD0BE76907E4080C4340F2FF7151
S315000051706D022D0B0A40F5E650463043002800D15B
S315000051807DE0002E00D1D9E03000FCF797F902004F
S3150000519003000B3A1D201900821A50460839D040E8
S315000051A08E40064350468840009AD31A2A4A9446AF
S315000051B06344009340F2000CB8E62C000443002C34
S315000051C055D0002D00D1ABE02800FCF777F901009F
S315000051D002000B391D2310005B1A31003400083819
S315000051E08540D94084400D431B4840F20009831A8C
S315000051F040F2000B009377E604002C4374BB40F2A8
S31500005200FF73002540F2080940F2020B00936BE69B
S31500005210009A504694469C4463463043009368B9CE
S315000052204A4602231A439146002640F2020C7DE6C6
S315000052305A463B00022A00D08BE6A0E64A460323E4
S315000052401A439146504640F2030C6FE601FCFFFFFD
S31500005250C8630000FFFFFFFE0DFCFFFF40F2FF7377
S31500005260040040F20C0940F2030B00933CE60023D5
S31500005270002540F2040940F2010B009334E64A4649
S3150000528001231A439146002640F2010C4EE6802582
S31500005290002300242D0340F2FF7263E60120801AEA
S315000052A0382800DD5BE61F285BDD1F2629007642D5
S315000052B0B21AD1400A00202805D040F23E4C01998E
S315000052C061448D402C43611E8C41072122430C0012
S315000052D00025144011425CD00F21002511400429FD
S315000052E054D0111D914292415242AD180A00290232
S315000052F04CD501220025002434E6802212031542F3
S3150000530007D0164205D132431503434604002D0B40
S31500005310C1E78022120315432D033B002D0BBAE78C
S31500005320FCF7CCF801000200153120321C2900DC04
S3150000533050E7350008380024854055E75046FCF70D
S31500005340BDF802000300153220331C2A00DC21E7D9
S3150000535002005646083A0020964025E7009A019238
S31500005360DFE640F21E4C01992A00614426008C407B
S315000053708A40C640611E8C4132432243C5405107D4
S31500005380B5D00F2111400429ABD1B0E76C076D02EF
S315000053902D0BD20814430022E4E5802212031543A4
S315000053A02D032D0B77E7C046F0B557464E464546CA
S315000053B0DE46E0B50D00040011001A002B035B0A5F
S315000053C0400F18438146E0005400640DA24640F2A7
S315000053D0FF7817034C0F6E0083B07F0AC90027437E
S315000053E0760D0C00ED0F0190D20FC24500D1B5E04D
S315000053F040F2010C63465A409346954200D187E03D
S315000054005346F31A9C46002B00DCB0E05346002BB3
S3150000541000D1C5E040F2FF739E4200D16FE18023C8
S315000054201B041F436346382B00DD8EE11F2B00DD76
S3150000543004E2624620233C009B1A0A0099409C40E5
S315000054404B1E99416346A0466446DF404B46E24008
S315000054504446DB1B994614430C43041BA0429B4164
S315000054604A465B42D31A1A0200D41FE15B025B0A6A
S3150000547098464346002B00D154E14046FCF71EF8FF
S315000054800200083A202120004346891A9340C8406A
S3150000549094400343964200DD53E1921B511C1F29A1
S315000054A000DDF5E0202218002600521A94409040B4
S315000054B0CE40621E94413043CB400026044362072F
S315000054C009D00F222240042A05D0221DA242A4415F
S315000054D064421B1914001A0200D4EAE040F2FF727B
S315000054E00136964200D105E1C74FE4083B40580714
S315000054F05B0220431F0B164036053E43ED072E4345
S31500005500310003B0F0BCBB46B246A946A046F0BD8A
S315000055105346F31A9C46002B5FDD5346002B00D101
S31500005520A7E0464500D1EAE080231B041F436346FB
S31500005530382B00DDCDE01F2B00DCACE13A00203B30
S31500005540DA406346202B05D0644640231B1B3C00F3
S315000055509C400C43631E9C411443BEE03B000B433E
S3150000556083B39346954235D0A84B9C46B4446346D4
S31500005570002B64D053469B1B9C46002E00D00CE1AA
S315000055804C460443002C00D1A9E15C1E012B00D13E
S31500005590F3E140F2FF75AB4200D1C2E1A44606E159
S315000055A03B000B43002B00D1D4E063466246013B2F
S315000055B0012A00D1ACE140F2FF72944500D19EE091
S315000055C09C462FE740F2010C63465A4093469542AB
S315000055D000D015E78D4B9C46B4446346002B00D1A2
S315000055E0BFE053469B1B9C46002E00D143E140F290
S315000055F0FF72924500D1D5E180224B461204134337
S3150000560099466346382B00DD91E11F2B00DD1BE236
S31500005610624620239B1A4C460200984066469C40F0
S31500005620431E98414B46F240F34014430443FF188F
S3150000563064188C429B415B425646DB1952E040F2AD
S31500005640FE74731C1C4200D0C7E04B460343002E79
S3150000565000D04AE1002B00D199E13B000B43002B1F
S3150000566000D0AAE14B46C0085B0718434B46DB084F
S3150000567028E03B000B43002B6CD063466246013B9F
S31500005680012A00D1C4E0C44500D190E19C464EE712
S3150000569018001F3AD040202903D04022511A8B40CF
S315000056A01C43631E9C41002600230443620700D06E
S315000056B007E7B4465A07E0081043DB0840F2FF72DA
S315000056C0944522D01F0340F2FF7663463F0B1E40EF
S315000056D012E73C000C43631E9C41241884429B4104
S315000056E05B424B441A02E1D540F2FF720136964204
S315000056F000D099E040F2FF7600270020FCE6C008C3
S315000057004B465B0718434B46DB0802001A43002A48
S3150000571000D1D4E180273F031F433F0340F2FF76C9
S315000057203F0BE9E62000FBF7C9FE020018321F2AEC
S3150000573000DCA7E62300083883400024964200DCFC
S31500005740ABE6B61A304A1340B9E63C000C43631E7A
S315000057509C4182E64B46C0085B0718434B46DB0874
S31500005760ACE7731C9A4640F2FE735446234200D0BF
S31500005770A4E04B460343002E00D0F1E0002B00D1FD
S315000057804FE13B000B43002B00D04FE14B46C008D6
S315000057905B0718434B46DB0894E740F2FF74A245CB
S315000057A000D1BEE080244B46240423439946634639
S315000057B0382B53DC1F2B00DDBEE020256246ED1A98
S315000057C04C460300AC40D340A8401C43431E9841BE
S315000057D04B46D3402043FF1A45E04B46441ADA1B9A
S315000057E0A0429B415B429846130042469B1A98464C
S315000057F01B0200D582E040462043002800D038E650
S31500005800002300255EE7C046FFFF7FFF01F8FFFF8C
S3150000581044183B00844280414B4440421B180126F9
S315000058201A0200D442E702260121A74A1340620861
S315000058300C401443DA0714435B0840E63A00203B69
S31500005840DA406346202B05D0644640231B1B3C00F0
S315000058509C400C43631E9C411443FEE54B460343A8
S315000058601800431E98410C1AA1429B415B425D46BB
S315000058705646FB1AF7E54A460243002A00D1AEE037
